:10000000283F0020C548000069D70100F5480000DE
:10001000F5480000F5480000F54800000000000029
:100020000000000000000000000000006146000029
:10003000F5480000000000001946000001D301004F
:1000400085480000156401008548000085480000CF
:10005000854800008548000085480000854800006C
:10006000854800008548000085480000854800005C
:10007000854800008548000085480000854800004C
:10008000854800008548000085480000854800003C
:10009000854800008548000085480000854800002C
:1000A000854800008548000085480000854800001C
:1000B000854800008548000085480000854800000C
:1000C00085480000854800008548000085480000FC
:1000D00085480000854800008548000085480000EC
:1000E00085480000854800008548000085480000DC
:1000F00085480000854800008548000085480000CC
:1001000053B94AB9002908BF00281CBF4FF0FF317E
:100110004FF0FF3000F074B9ADF1080C6DE904CE7A
:1001200000F006F8DDF804E0DDE9022304B07047D2
:100130002DE9F047089E0D4604468846002B4DD118
:100140008A42944668D9B2FA82F252B101FA02F3B5
:10015000C2F1200120FA01F10CFA02FC41EA030885
:1001600094404FEA1C45210CB8FBF5FE1FFA8CF7B2
:1001700005FB1E8341EA03430EFB07F199420BD9AD
:100180001CEB03030EF1FF3080F01E81994240F218
:100190001B81AEF1020E63445B1AA4B2B3FBF5F00F
:1001A00005FB103344EA034400FB07F7A7420AD9D2
:1001B0001CEB040400F1FF3380F00881A74240F2F9
:1001C000058164440238E41B40EA0E4000211EB160
:1001D000D4400023C6E90043BDE8F0878B4208D92C
:1001E000002E00F0EE800021C6E900050846BDE8BB
:1001F000F087B3FA83F100294AD1AB4202D382429D
:1002000000F2F980841A65EB030301209846002E62
:10021000E2D0C6E90048DFE702B9FFDEB2FA82F2B7
:10022000002A40F09180A1EB0C054FEA1C471FFA11
:100230008CFE0121B5FBF7F307FB1350250C45EAB3
:1002400000450EFB03F0A84208D91CEB050503F19D
:10025000FF3802D2A84200F2CB8043462D1AA4B246
:10026000B5FBF7F007FB105544EA05440EFB00FE12
:10027000A64508D91CEB040400F1FF3502D2A645BF
:1002800000F2BB802846A4EB0E0440EA03409EE740
:10029000C1F120078B4022FA07FC4CEA030C20FA3C
:1002A00007F405FA01F31C43FD404FEA1C4900FA2C
:1002B00001F3B5FBF9F8200C1FFA8CFE09FB185569
:1002C00040EA054508FB0EF0A84202FA01F20BD9FC
:1002D0001CEB050508F1FF3A80F08880A84240F247
:1002E0008580A8F1020865442D1AA4B2B5FBF9F087
:1002F00009FB105544EA054500FB0EFEAE4508D942
:100300001CEB050500F1FF346CD2AE456AD902380A
:10031000654440EA0840A0FB0294A5EB0E05A54207
:10032000C846A64656D353D05EB1B3EB080265EB80
:100330000E0505FA07F722FA01F3CD401F43C6E97F
:1003400000750021BDE8F087C2F1200320FA03F117
:100350000CFA02FC25FA03F395400D434FEA1C47C3
:100360001FFA8CFEB3FBF7F107FB11302B0C43EAAD
:10037000004301FB0EF0984204FA02F408D91CEB8A
:10038000030301F1FF382FD298422DD9023963447B
:100390001B1AADB2B3FBF7F007FB103345EA034578
:1003A00000FB0EF3AB4208D91CEB050500F1FF384A
:1003B00016D2AB4214D902386544ED1A40EA014125
:1003C00038E73146304607E78646E5E61846FAE65E
:1003D0004B45A9D2B9EB020864EB0C0E0138A3E738
:1003E0004046EAE7204694E74146D1E7D0467BE71E
:1003F000023B654432E7084609E76444023842E7B5
:10040000704700BF000000002DE9F041D0E90B3536
:10041000866A5C193034A6428846174618D81C4DA7
:10042000A3FB050118A3D3E90023FFF769FEA41B72
:1004300020F07F40C8F8000013A3D3E90023A4FBF9
:100440000501FFF75DFE20F07F403860BDE8F081D8
:100450000F4C0DA3D3E90023A6FB0401FFF750FEC8
:1004600005F1300120F07F40C8F8000006A3D3E971
:100470000023A1FB0401FFF743FE20F07F4038601A
:10048000BDE8F081AFF300808D49FD1A0700000040
:1004900000CA9A3B000000002DE9F04F8FB0002801
:1004A00000F05C81BA4C94F84A6016F0010636D12F
:1004B00094F8292094F8353094F82500FF2104EBB6
:1004C000820204EB830384F8261000F00300D2F8C4
:1004D0002C80D3F8389015F0AFFA94F84A00410711
:1004E00000F12181B8F1000F11D0A94841460EF06A
:1004F00063FF98F800305A0605D5062109F03AFF47
:10050000002800F0FA81A24849460EF055FF98F8FD
:10051000003013F00E0F40F0DF80236A23B10C2669
:1005200030460FB0BDE8F08F0EF002F8824600288A
:1005300000F0F2810EF008F88346002800F0F18107
:100540000FF00EFF0546002800F0E881406F4FF6DF
:10055000FF732B8505F11C03002800F0D98105F1FC
:10056000680205F164010B9309F010FFB5F86020F3
:10057000884B22F4EF6222F0070242F4887242F0C4
:100580000102A5F8602095F8392002F03F0262F0E0
:100590007F0285F8392095F87A2022F0070285F845
:1005A0007A2095F83C2022F0070285F83C2095F847
:1005B000D82022F0070285F8D8204FF01B12002720
:1005C000C5E916230622A5F8C020C5E912776F6792
:1005D000A5F87870EF852F6385F83B702F65A5F837
:1005E000C470A5F8C870A5F8D070A5F8CC70A5F8AF
:1005F000E47085F8E670C5F80871A5F80C71A5F8E7
:1006000020710DF055F895F83A21A5F8387122F0CF
:10061000030285F83A2195F87A20A5F8407122F076
:10062000180285F87A2095F8662185F8437122F042
:10063000070285F8662195F88621C5F844A167F37D
:10064000041285F8862195F8AE21A5F8647167F348
:10065000C302C5E94A0100210020C5E94C0185F823
:10066000AE2185F8D970A5F88471C5F8E070A5F8B9
:10067000AC71A5F8B87110F0B5F9A5F8D20010F07A
:10068000B7F9D5F8BC11444AA5F8D4000A40C5F81A
:10069000BC2110F0B3F995F8C02160F3020285F88F
:1006A000C02110F0B1F90B9B236295F8C031C5F859
:1006B000C47160F3C503C4E910ABC5E97477C5E93B
:1006C0007277C5E905772F70ED6185F8C03116F0B6
:1006D00003FB002840F0138194F824300121C3F378
:1006E00042030DF133008DF8333009F0C9FF70B3C8
:1006F00098F8002002F00F02022A4FD0012A00F0E1
:10070000028199F801301033DB00002A00F0EA8002
:10071000062A00F00B814FF4DA714FF41B73013895
:1007200001FB003146E0C0F3C000324604F14B014A
:1007300015F018FBFF2884F826003FF4D3AE3046AE
:1007400015F0C0F9B8F1000F7FF4CFAEDFE6236AF1
:10075000002B3FF4E4AE0EF09BFBE0E60C4B93F86D
:100760004A20D4077FF5DBAE1A6A5AB192F82010FE
:1007700041F0020182F820101B6A93F82030D8075C
:100780003FF5CDAE0FB0BDE8F04F0EF0C3BB00BFDC
:10079000741D0020480148010000FFF698F8013060
:1007A0001033DB0000FB03F303F5AA730138642167
:1007B00001FB00316648E46100253123A360C4E9F0
:1007C000055561A3D3E90023A1FB000125706560F5
:1007D000E560FFF795FC2061B4F848700BF060F914
:1007E000814647B998F8005005F00F05A5F10105BD
:1007F000B5FA85F56D0994F8240065F3000010F052
:10080000010584F8240043D02369524ADFF8488167
:100810000493002002250DAF019305920321CDE939
:10082000020006944B4600900897CDF81C802A469B
:100830000D950BF00BF839460DF00AFF002886D114
:10084000464A05924AF2D8320092CDE90300CDE93A
:100850000100CDF81C80089706944B460122032125
:100860000D950AF0F3FF39460DF0F2FE00287FF4F3
:100870006EAF94F84A3043F0010384F84A300EF02A
:10088000D1FE00287FF44CAE012015F0B7F847E602
:10089000069402952369324A3248049303F24713BF
:1008A0001360A7FB0001912303FB07112A4B079359
:1008B000284B05934FF6FF7309924FF002080393FC
:1008C0000DAF21A3D3E90023CDF834800897FFF7BB
:1008D00017FC4B46CDE900504246284603210AF05A
:1008E0005FFFC0E798F80110103103EBC103C900A6
:1008F00003F54D7301F59A7111E7122610E60EF01B
:10090000C7FA03260CE64FF4F2714FF47F7306E743
:1009100005F16C00686722E6072601E658460DF0EF
:1009200019FE50460DF00AFE0726F9E598F8012059
:10093000103203EBC203D10003F54D7301F59A7138
:10094000EDE600BFAFF300808D49FD1A07000000FF
:1009500000CA9A3B19EC00007DD70000FDEA0000B8
:10096000C81D0020002AE78438B5194C9DF810E016
:1009700094F844C01CF0010522D163F3420C4001FD
:1009800094F83230A1874FEACE0E0EF0180E00F028
:10099000200040EA0E0023F0380303430D4884F89A
:1009A0003230A2FB0001912303FB021106A3D3E91D
:1009B000002384F844C0FFF7A3FB2064284638BD19
:1009C0000C25284638BD00BF8D49FD1A07000000E0
:1009D000EC1D0020002AE78410B59DF808C00446ED
:1009E00049014FEACC0000F0180001F0200CA17D75
:1009F00022844CEA000C0C4821F038014CEA010C2E
:100A00009122A3FB000102FB031184F816C004A38A
:100A1000D3E90023FFF774FB606210BDAFF30080E1
:100A20008D49FD1A07000000002AE784000000003D
:100A30002DE9F047044600F1350190F8440094F8A0
:100A40003230C0F3400060F386138CB084F832304B
:100A50000BF02CF894F83220A38F4D48E46102F09B
:100A600079020025A3FB000184F83220912202FBC9
:100A70000311C4E9055544A3D3E900232570FFF70A
:100A80003FFB3123C4E90153236CE5600933A0F136
:100A90003102934232BF23612261256406460AF087
:100AA000FFFF236A07460DF12C08002B4CD0394D6F
:100AB000394BCDF820800694651BA3FB05353448DF
:100AC000A38F4FF0000AA3FB00019122CDF80CA0E8
:100AD00002FB031123690493304B0793304B0593BA
:100AE0004FF0020928A3D3E90023CDF82C90FFF79B
:100AF00007FB104619464FF47A720023FFF700FBFC
:100B00002D090435EDB22A46CDE901603B460321AB
:100B1000CDF800A050460AF099FE41460DF098FD30
:100B2000054668B994F8443043F0010384F8443032
:100B30000EF0E4FB0446F8B128460CB0BDE8F0879F
:100B40000C200CB0BDE8F087CDE90A33216943469B
:100B50000AAA032001F050F90B990029A7D01148E7
:100B600009A3D3E90023A1FB0001FFF7C9FA0A9FFB
:100B700020F07F4007449AE7484614F03FFF2046A4
:100B80000CB0BDE8F08700BF8D49FD1A07000000DA
:100B9000002AE784EC1D0020398EE3387DD7000061
:100BA00019F4000000CA9A3B2DE9F04FDFF8E0C2CB
:100BB000DCF800308BB004460E461746002B00F0E0
:100BC000B181E38D658E1D4494F80E31354413F0E8
:100BD0000702ADB20AD0531E042B00F27583DFE882
:100BE00013F0CA013602C50171013902B4F8E88078
:100BF000A5EB080319041FFA83FB00F18E8194F919
:100C00003930002BC0F26A8294F8E43084F8E53081
:100C100094F8842194F8853194F80C1184F80D111E
:100C200093420AD094F8863103F00703052B04D1D0
:100C3000002384F88521A4F8C830DCF80030D4F80B
:100C40000891A34204BF0023CCF80030B9F1000F93
:100C500000F07C81D9F80000002800F07781628DD7
:100C6000B4F810314168C4F808119342B4F8122165
:100C700000F03C82B4F81411B4F828C0A9F81E3072
:100C8000162389F804300023A9F806C0A9F820200B
:100C9000A9F8221089F81C3049460DF061FC0DF0CE
:100CA00069FCA368002B09DAE168626823F000435D
:100CB00091422CBF7F18BF18A360FF1A608DB4F853
:100CC000109110FB0BF080B2B0FBF9F119FB01F3AE
:100CD0009BB298421FFA81FA80F027811B1A40F2DA
:100CE000E2416C4803FB01F1A1FB000166A3D3E9DB
:100CF0000023FFF705FA20F07F400744E18D94F9C7
:100D00003930A8EB0508D0440E444644002B40F28D
:100D1000E248E68508FB09F6C0F20B82D4F8181108
:100D20005C4859A3D3E90023A1FB0001FFF7E8F9D0
:100D300020F07F48B34608F10108574AB4F814314F
:100D4000B4F812115548A4F82A903244B2FBF6F2D6
:100D5000A4F8C62042F2107202FB03633044013B48
:100D6000B0FBF6F0B3FBF6F683B2881D8342A18593
:100D7000A4F8C260A4F8CE3002DD5B1A063B9BB239
:100D8000A4F8CA3094F80E311B0744BF0023A4F81E
:100D9000C4300221012018F077FC00220221814694
:100DA000012009F043FB3E494FF4F072204609F060
:100DB000CDFA00F1050A5FFA8AFA3A4B00945246DE
:100DC000012100200AF0CCFD30F002030CD0364A9D
:100DD0003649374840F604331BF060FA404080F350
:100DE00011884FF0030002DF2A4EABFB066B26A3EF
:100DF000D3E9002330465946FFF782F920F07F45BA
:100E00002C480723A5FB0001301A03FB05116BEBEF
:100E100001014FF47A720023FFF772F9CDE9015016
:100E200008940694CDF80080216994F9395022483D
:100E300004912249224C079411EA250138BF01464A
:100E400005914FF6FE713B46039152460121002069
:100E50000AF0FCFC30F002030CD0134A134914488A
:100E600040F61E331BF01AFA404080F311884FF011
:100E7000030002DFB9F1000F40F0558100200BB0F4
:100E8000BDE8F08FAFF300808D49FD1A0700000028
:100E9000481E002000CA9A3BFF5962027FC3C90165
:100EA000E00D002011FB0000100C0200F00C02000D
:100EB0000C0602008D49FD1AE5490100F9470100C1
:100EC000B9FA0000A38D94F80E01D4F8C4211D4492
:100ED0000635D4F8EC30ADB26FF30200A4F8E85058
:100EE000A3F109011D8184F80E0122B194F8660175
:100EF000850740F16D81D4F8C801002800F0818198
:100F0000D4F8CC21106843F8090C116053F8092C6F
:100F1000C4F8CC11002A00F071816FF076000BB09C
:100F2000BDE8F08FCCF800004BE609FB110140F260
:100F3000E243CB4889B203FB01F1A1FB0001C6A348
:100F4000D3E90023FFF7DCF83F1AD7E6C54AC649C4
:100F5000C64840F659231BF0A1F9404080F31188A0
:100F60004FF0030002DFD9F8000078E66FF00F00C1
:100F70000BB0BDE8F08FDFF8F88201200DF000FB28
:100F80000646002800F02181BA4809F0A9F9054673
:100F9000002800F01A810DF011FB3368D4F8082105
:100FA0005A602B79C4F8086143F003032B710C23BA
:100FB0006B710023EB7194F81C312B72AE4AD4F89C
:100FC0001831A2FB03239B0AA5F80930B4F81031AD
:100FD000A5F80B30B4F81231A5F80D30B4F814317F
:100FE000A5F80F3094F80E31C4F8F070032262F3C4
:100FF000020384F80E31A368002B0ADAE168626804
:1010000023F0004391422CBF7F18BF18FB1AC4F88D
:10101000F0309A4B01220935C4F8EC5002211046F9
:10102000C3E9024809F034FA00283FF476AF8D4A4C
:1010300093498E4840F6A9131BF030F9404080F3E5
:1010400011884FF0030002DF6FF0760017E7DFF83A
:10105000348292E794F8E41084F8E51094F80C11C7
:10106000D4F8EC2084F80D11D4F8C43194F884112C
:1010700084F885110021CCF80010A2F10901C3B158
:1010800094F86601870714D494F8BF01C60710D4FA
:10109000D4F8D001834200F0F980D4F8C80168B9CF
:1010A000187900F00300032800F00181C4F8C8316A
:1010B00006E0D4F8C801002800F0AD80D4F8CC31A7
:1010C000186842F8090C196052F8093CC4F8CC11B0
:1010D000002B00F0A7806FF08B00D0E694F8D93099
:1010E000002B3FF491AD84F8D92091E5A18D914278
:1010F000B4F814117FF4C0AD40F2E24C0CFB03FED7
:1011000042F2107C0CFB01EC0CF1FF3CBCFBFEFC42
:10111000B4F8C2E01FFA8CFCE6457FF4ADAD0123C4
:1011200089F80430B8E501220221104609F07EF961
:10113000A4E6226CA36C02FB1B33A36415F020FE13
:10114000054694F8D800C0F3C20015F01BFE054414
:1011500006FB05F54C4B94F81C2105F5742505F2AA
:101160003F25A3FB0535AD0C08FB02F2A36C2265FD
:1011700005FB0AF072080344963A934228BF1346CF
:101180002564A6EB050B364DC4E911230023C4F8F2
:10119000E030A0FB050130A3D3E90023FEF7B0FF48
:1011A000354B3F1AD4F81801A3FB0030800A08FB26
:1011B00000F029A3D3E90023A0FB0501FEF7A0FF5F
:1011C000B4F8109120F07F48B7E56FF0680056E65C
:1011D00094F8BF01C0073FF58EAED4F8D00182422B
:1011E00025D0D4F8C80100287FF48AAE107900F029
:1011F0000300032862D0C4F8C82183E6C4F8D411E0
:101200008BE643F8092CC4E97111C4F8CC11002A0B
:101210007FF483AEF2E742F8093CC4E97111C4F8E7
:10122000CC1155E7C4F8D4116FF08B0027E6106895
:10123000C4F8D001D4F8C80100287FF461AE10686A
:1012400043F8090C116053F8092CC4E97211002A03
:101250007FF463AED2E700BF8D49FD1A070000009E
:1012600000CA9A3B100C0200DC0C02000C060200C3
:10127000D94F0100DC1E00205917B7D1B00400205F
:101280002C090200C11F000083DE1B431868C4F84C
:10129000D001D4F8C80100287FF410AF186842F8D4
:1012A000090C196052F8093CC4E9721110E7D879A9
:1012B0000328F3D00A287FF4F9AEEFE7D0790328AA
:1012C000BDD00A2897D1BAE7074A0849084840F62E
:1012D00005231AF0E3FF404080F311884FF003002C
:1012E00002DF4FF0000848E6100C0200A4060200DE
:1012F0000C060200000000002DE9F04F0B68D2F848
:1013000000A01B6897B00C460B93037F00F11E01F1
:10131000C3F380130546174614A806228DF84730FC
:101320001CF072FA94F81290B9F1FF0F12AE59D076
:1013300032460DF14701484614F004F99DF8473054
:1013400002338DF847302946032251F82E3B0A9389
:1013500007F1080007F1040B1CF056FA07F1180812
:10136000042205F12A0158461CF04EFA052205F127
:101370003A0140461CF048FA4046052109F080F940
:101380007B7F95F83F1000F03F0060F305037B770B
:10139000C1F30403BB77B5F83480A7F80E800128A9
:1013A0001FFA88F201F01F0305D91B3303F01F0356
:1013B0000B2B00D8E2B997F820300A986FF300039E
:1013C000012687F820302E71646829460DF0C8F890
:1013D0002068267121460DF0C3F80DF0CBF817B048
:1013E000BDE8F08F062214A930461CF00DFAAAE7DA
:1013F00023680020586095F8363095F8370043EAA6
:1014000000233B829AF8D830490961F3C503698EFD
:101410008AF8D83040F2E24303FB02F80D9115F050
:10142000AFFC0C909AF8D800C0F3C20015F0AAFCEB
:101430000C9AB749024408FB02F202F5742202F248
:101440003F22A1FB0232920C7A6295F83120398A50
:1014500040F2E24302FB03F3BB634FEA5803963BBF
:10146000BB622B8FAB4AADF83A3018464244AA4BC8
:10147000B2FBF8F2AAF8C62082B242F2107000FB6A
:1014800002824344013A881DB2FBF8F2B3FBF8F341
:10149000AAF8C2209AB28242AAF8CE2002DD521ADD
:1014A000063A92B2AAF8CA20594604220AF1DC0090
:1014B0001CF0AAF94FF480722B7FAA830B9A92F842
:1014C0002600C3F340120F920C9214F0E1FD0028A5
:1014D00000F0E580062205F1240105F12B001CF047
:1014E00093F9B9F1FF0F00F0E18014A9062205F18C
:1014F00025001CF089F99DF84730AB77314606226C
:1015000005F11F001CF080F99AF8D830FA896A8634
:101510003A8AAA86C3F3C203BDF83A2085F8383068
:10152000EA8650460EF028FF2946B881E8806568B3
:101530000A980DF015F8BB89EB8019232B710C9BD1
:101540002E68002B40F0C1809DF83C302B77294657
:1015500030460DF005F80DF00DF897F84500012123
:1015600000F0070015F01CFA81466C480026312374
:1015700009F25241CAF80830A1FB000162A3D3E985
:101580000023CAF80460CAF80C60FEF7B9FD7B6A54
:101590000D9AE56820F07F40A8EB030840F2E24393
:1015A00003FB025502213246CAF81000012008F060
:1015B0003DFF0B9F38460DF085FE821C584B00976F
:1015C000D2B2304601210AF0CBF905F2B24501282A
:1015D000A5EB090500F084800B9B93F82430DB0712
:1015E0006BD450460EF0C8FEDFF83091A8FB098698
:1015F00045A3D3E90023834631464046FEF780FDEC
:10160000A368CDF818A00BF10504A3F13A0B454BE4
:101610000793454B05934FF4D5730893DAF81030D0
:10162000049320F07F4741480023A7FB0001039368
:101630000723B8EB000003FB071166EB01014FF431
:101640007A720023FEF75CFD2FA3D3E90023CDE9D6
:101650000170A5FB0901FEF753FDE4B220F07F40C5
:1016600000905B462246012100200AF0EFF830F09E
:1016700002030CD02E4A2F492F4840F2AB131AF028
:101680000DFE404080F311884FF0030002DF01227D
:101690000221104608F0CAFE17B0BDE8F08F0146DF
:1016A000062205F12B001CF0DAF81AE706220021C9
:1016B00005F125001CF0D3F81DE70023012200935B
:1016C000184611460AF04CF98BE77B7F43F0400344
:1016D0007B77584613F028FD0123F8832B7736E7F4
:1016E0000CF0F4FF0B9B83423FF476AF104A134992
:1016F000114840F247231AF0D1FD404080F3118891
:101700004FF0030002DF67E78D49FD1A0700000074
:1017100083DE1B43FF5962027FC3C90100CA9A3BA3
:10172000BD4701008D470100F94701008D49FD1AB1
:101730002C0E0200F00C02000C060200840E0200C7
:101740002DE9F04F8BB007460493BDF85830059350
:101750000020BDF860309DF85490BDF85CB0039354
:10176000884616460DF06CFF002800F0BA81036A27
:10177000054600F11C0A002B44D0304614F07EF9D7
:1017800095F833306FF3410385F83330FF2385F844
:1017900034305EB3A9F10203012B40F26C8195F85D
:1017A0004430049A69F3420385F8443095F83330A5
:1017B00062F3000385F833301499062205F1240002
:1017C0001CF022F8039B2B863A46434650460021E4
:1017D0000096FFF701F915F07FFA002840F05781D5
:1017E0002846FFF725F90BB0BDE8F08F14F00AFE8C
:1017F0000028CFD014990498324614F0B3FA85F833
:101800003400C7E70CF094FE0690002800F07E81BB
:101810000EF0A6FD0446002800F07A81203008F082
:1018200047FF04F11C030793002840F05E81032169
:1018300004F1240014F066FF059B606F63854FF68A
:10184000FF73A4F82CB02385002800F05B8104F11D
:10185000640104F1680208F099FDB4F86030C04AF0
:1018600023F4EF6323F0070343F4887343F0010389
:10187000A4F8603094F87A3023F007034FF0000B9F
:1018800084F87A304FF01B13C4E91632C4F874B0F0
:10189000A4F878B0A4F82EB0C4F830B004F1340045
:1018A00013F0E4FB94F8393060F30503012184F868
:1018B00039300DF1270014F025FF9DF82720A94BA2
:1018C000DDF80CC0A08D84F83BB0A3FB0213DB084D
:1018D00003EB4303A2EB8303053384F83A3094F817
:1018E00039300599A4F8C4B003F03F0384F83930C7
:1018F00094F83C30A4F8C8B023F0030340F2E2426D
:1019000084F83C30984BA4F8D0B002FB01F10A46B1
:101910000B44B3FBF1F39549A4F8CCB01144B1FBEF
:10192000F2F1A4F8C61042F2107101FB0C2101394A
:10193000B1FBF2F2A4F8C2200622A4F8C020811D57
:101940009AB28A42A4F8CE2002DD121A063A92B266
:1019500094F8D830A4F8CA204FF0000B23F0070306
:1019600084F8D830A4F8E4B084F8E6B0C4F808B13C
:10197000A4F80CB1A4F820B10BF09AFE069BC4F8B1
:10198000443194F83A31A4F838B123F0030384F8D1
:101990003A3194F87A30A4F840B123F0180384F86F
:1019A0007A3094F8663184F843B123F0070384F861
:1019B000663194F88631A4F864B16BF3041384F8AB
:1019C000863194F8AE31A4F884B16BF3C3030022DE
:1019D00084F8AE310023C4E94A01C4E94C23A4F8D9
:1019E000ACB1A4F8B8B10EF0FDFFA4F8D2000EF02F
:1019F000FFFFD4F8BC215E4BA4F8D4001340C4F818
:101A0000BC310EF0FBFF94F8C03160F3020384F8A0
:101A1000C0310EF0F9FF94F8C031C4F8C4B160F3DE
:101A2000C50394F8600084F8C031C0F3C001C4E974
:101A300074BBC4E972BB00F0070014F0AFFF4D495E
:101A4000C4F804B0312300F25240A360C4F80CB0D3
:101A500041A3D3E90023A0FB0101FEF751FB04F1F0
:101A60001C0320F07F4020612B62C4E905BB84F891
:101A700000B0E46181E6002014F024F895F83330DA
:101A800043F0020309F0010985F8333087E62C6A38
:101A9000A36D63B1384A3949394840F2F9331AF035
:101AA000FDFB404080F311884FF0030002DF04F19A
:101AB0004C0104F1480008F06DFC064600283AD0BD
:101AC0002768A665D7F844413CB320460CF036FDA4
:101AD00038460EF04BFC002303202B620BB0BDE810
:101AE000F08F0C200BB0BDE8F08F234A2549244825
:101AF0009E231AF0D3FB404080F311884FF003007F
:101B000002DF94E604F16C006067A0E607206AE655
:101B100006980CF013FD072065E6174A1A49184885
:101B200040F202431AF0BAFB404080F311884FF0B4
:101B3000030002DFC9E7104A1349114840F2FB33A2
:101B40001AF0ACFB404080F311884FF0030002DF35
:101B5000B6E700BFAFF300808D49FD1A0700000013
:101B600048014801ABAAAAAA7FC3C901FF59620272
:101B70000000FFF600CA9A3BC80E0200740B020078
:101B80000C060200F8080200740C020000000000BD
:101B90002DE9F04F8DB0067F04460F46154600F143
:101BA000240106220AA81BF02FFE002394F81C90A3
:101BB000A383797C97F81280C9F3401B11F00101CF
:101BC000C6F3C016D9464FF0060200F0DF8004F1DC
:101BD0001E0104F12B001BF017FEB8F1FF0F00F0FF
:101BE000DD80404604F11F0204F11E0113F0AAFC3F
:101BF000A37F02330AA9A377062204F125001BF074
:101C000003FE3B68D3F800A0EB8963862B8AA3868A
:101C1000BAF83030E38615F0B1F884F83800D5F81A
:101C2000008040460EF0A8FB7E68A8812146E08037
:101C300020680CF095FCAB89F3801923346833716C
:101C4000B9F1000F40F0B88086F81CB0314620464C
:101C50000CF086FC0CF08EFCD8F80430D8F8086044
:101C600095F84400B5F80E90FC689E4238BF1E46B9
:101C7000C0F3C00140F2E24300F0070003FB09F9A2
:101C800014F08CFE203400220221241A012008F0D6
:101C9000CDFB50460DF0ACFC021D4F4BCDF800A023
:101CA000D2B20121002009F05BFE30F002030CD01B
:101CB0004A4A4B494B4840F233331AF0EFFA40405E
:101CC00080F311884FF0030002DF4FF0000A534603
:101CD00003220121CDF800A0504609F041FE404604
:101CE0000EF04AFBBB68CDF81880093B9E1B3E4BAB
:101CF00007933E4B059340F263333D4F0893D8F86A
:101D00001030A9FB0798CDE903A3451D30A3D3E903
:101D1000002348464146FEF7F3F9104619464FF4B2
:101D20007A720023FEF7ECF929A3D3E9002302908D
:101D300041464846FEF7E4F925A3D3E90023019084
:101D4000A4FB0701FEF7DCF9EDB220F07F40009024
:101D500033462A460121504609F078FD30F002034F
:101D60000CD01E4A1E491F484FF459731AF096FAB8
:101D7000404080F311884FF0030002DF012202216E
:101D8000104608F053FB0DB0BDE8F08F04F12B00B6
:101D90001BF065FDB8F1FF0F7FF423AF0622002191
:101DA00004F125001BF05BFDA6770AA9062204F1C9
:101DB0001F001BF029FD24E76B7F43F040036B7786
:101DC000281D13F0B1F90123E88333773EE700BF04
:101DD0008D49FD1A07000000B1490100C80E02003C
:101DE000F00C02000C060200B5490100E5490100B3
:101DF00000CA9A3B000000002DE9F04F8FB01E464C
:101E000009931546FF230A1DDFF80481DFF804B1AA
:101E1000DFF804A1DFF80491089200213160044644
:101E20008DF82F3004930C91059106910DAF0CAEF7
:101E300002230D93CDE9018700962B460DF12F0269
:101E40002146002009F0CEFD02282DD00D9B002B4D
:101E500030D19DF82F30FF2B3CD0052BE8D100204E
:101E60000EF092FA0028E3D090F93930002BDFDB36
:101E7000049902690C9BFF290CD006990792184619
:101E8000049309F00FFE059B089A99188842049B59
:101E9000079A22D8CDE905239DF82F300493C7E790
:101EA0002146002009F0E4FD0D9B022BF8D00D9B8C
:101EB000002BCED052235A46514648461AF0EEF92E
:101EC000404080F311884FF0030002DF9DF82F306F
:101ED000FF2BC2D1049BFF2B10D0DDE90532104847
:101EE0001344A3FB0001072202FB031106A3D3E95D
:101EF0000023FEF705F9099B803018600FB0BDE89C
:101F0000F08F00BFAFF3008000CA9A3B00000000D2
:101F1000214D0100200F0200640F02000C06020098
:101F20008D49FD1A0000000070B582B01C46019278
:101F30001546064601AA0220FFF75EFF23680BB391
:101F40000198431B1B021FD4294609F0ABFD1A4A16
:101F500003460721A0FB020201FB032114A3D3E9DE
:101F60000023FEF7CDF8226802442260002A09DB34
:101F700040F2E24006FB00F0904203D2121A824285
:101F8000FCD8226002B070BD0146284609F08AFDE7
:101F9000094A03460721A0FB020201FB032104A317
:101FA000D3E90023FEF7ACF82268121A2260DDE7BD
:101FB00000CA9A3B000000008D49FD1A0000000095
:101FC0002DE9F041B0F8941188B0044640F2E243A4
:101FD0004348002603FB01F105AD0623C5E9016670
:101FE0008DF80F30A1FB00013BA3D3E90023059638
:101FF000FEF786F80DF10F0301950093B4F88A31CE
:10200000049004AA2046012112F08CFE9DF80F8056
:1020100008F1FF3C5FFA8CFC0DF11603304604F525
:10202000CA7703EB4C0C04F5D0764FF6FF7E3A8866
:10203000B8F1000F0AD02B46724504D0198891429E
:102040004FF0010013D002339C45F5D10237BE4258
:10205000EDD108BBBDF81430D4F8EC1040F2E242E8
:1020600003FB02F2C4F81821180A0B7009E0D4F837
:10207000EC1040F2E24302FB03F3C4F81831100AFB
:102080000A70487094F80E31042262F3020384F857
:102090000E3108B0BDE8F081D4F8EC30032203F82B
:1020A000042C13F8052C94F80E11052542F00302B8
:1020B000112003F8020C03F8052C65F302010F2030
:1020C000202203F8010C1A7084F80E1108B0BDE844
:1020D000F08100BFAFF300808D49FD1A07000000BA
:1020E00000CA9A3B0000000038B5044615F0BAFC5F
:1020F000A27DC2F34103013303F00303032B34D069
:1021000063F34202A27503F1250014F005FC636835
:102110000BB32369FBB117F041F9054609F0C0FC88
:10212000C11C002017F008F917F084F917F036F9F0
:10213000294609F0B7FC124903460722A0FB01011A
:1021400002FB03110CA3D3E90023FDF7D9FF236998
:102150001B1A236138BD09F0A3FCC11C002017F035
:10216000EBF8BDE8384017F065B96FF34202A2758D
:102170002520CAE7AFF3008000CA9A3B00000000A8
:102180008D49FD1A000000002DE9F04F87B004468C
:1021900016F0E8FEC0B250B914F016FC964821467D
:1021A00016F0B4FD07B0BDE8F04F16F0B1BE16F062
:1021B000F9FEC7B217F012F8C6B217F019F8824646
:1021C00017F02EFA5FFA80F817F00EFA834616F031
:1021D000C9FF814614F0F8FB01200CF019FB0546FD
:1021E000002800F0CE80002E40F0DB80B8F1000F18
:1021F00040F0E3804FF0FF0A002FCFD0A37D1807F7
:1022000040F1E480002E00F06681636800225FFAEE
:1022100089F68DF81320002B00F00E81636893F887
:102220002030990700F108812B7F03F00F01072967
:10223000B4D0A27DC2F3C009120740F15381002936
:1022400040F0E6806B7F252B00F2688104200CF0C3
:10225000DFFA0028A2D017F0F5F8636A064643B902
:10226000238C40F2712202FB03F3B0FBF3F203FB79
:10227000120623681A69614B0721A2FB030301FBC5
:1022800002315BA3D3E90023FDF73AFFA0F242330A
:10229000B34283D316F040FF5046636813F006FF45
:1022A000E37D9B07074640F1E081002800F0DD81D7
:1022B0008346012616F084FE2B7F05AA039205F1C2
:1022C0001E0201468146C3F380130092204600227D
:1022D000CDE9016B15F070FD484616F0F7FD16F0DC
:1022E00037FE002840F0E4814548214616F00EFDF7
:1022F0006168A37D91F8202043F0800342F0010241
:1023000081F82020A3750CF0A1FA1423064603716E
:102310004FF6FF732D7FC380494624221C301BF0EB
:1023200073FA337FB460C5F3401565F34513337713
:1023300017F034F8002130610120059D16F0D6FD1C
:10234000B8F1000F08BF4FF0FF0A86F81AA0E37D2E
:102350002D1A13F00203756102D03B1E18BF012332
:10236000727E63F3000272760CF070FA0346314617
:102370003068F3600CF080FA0CF08EFA07B0BDE81C
:10238000F08F204A2049214840F20F2319F086FFA0
:10239000404080F311884FF0030002DF002E3FF42D
:1023A00025AFA07D5FFA8AF1C0F3C00013F0A2FE52
:1023B0008246002F3FF4F2AE20E75FFA8BF013F075
:1023C00003FF8246002F3FF4E9AE17E7002E3FF4EB
:1023D0001CAF5146404613F085FF00287FF415AF2F
:1023E000A37D19077FF5DAAE0FE700BFAFF30080DA
:1023F00000CA9A3B00000000F57A01008D49FD1AE1
:102400002D7A010098130200E41302000C0602006A
:10241000012916D16B7F0C2B7FF4C0AE2A7FCDF83B
:1024200000A000230193D20905F12403204615F0F2
:1024300043FD00287FF40AAF297F01F00F01002936
:1024400062D0062960D0022900F08E80012965D172
:102450006B7F0C2B7FF4A2AE2A7FCDF800A00DF18C
:1024600013030193D20905F124030021204615F03E
:1024700023FD002852D06B7F002B3FF48FAE6368A2
:102480002BB12B7F03F00F03072B7FF487AEB8F13E
:10249000000F4FF003009DF8137008BF4FF0FF0AC4
:1024A0000CF0B6F9054600283FF478AE0CF0CEF9F2
:1024B0004FF6FF73EB8005232B71002E50D17F2345
:1024C00028682B76294685F81AA0EF760CF0D4F907
:1024D0000CF0E2F962E6504613F0C8FE00287FF4E3
:1024E00094AE5BE6BAF1FF0F8DF814A0C3F380172A
:1024F00000F0A080237EA3EB0A03B3FA83F35B0909
:10250000002B7FF49CAE9AE76B7F252B06D8A27D2B
:10251000920601D562684AB3252BADD92B7F03F013
:102520000F03042B7FF43AAE6B7F252B3FF636AEBC
:10253000A37DD8077FF532AE16F042FD2B7F0278DF
:10254000C3F38013B3EBD21F7FF428AE083006220A
:1025500005F11E011BF047F900287FF41FAE8AE742
:1025600016F0F2FDC3B2ABE76B7FD5E7962016F00D
:1025700055FE002016F028FDB8F1000F4FF00300C3
:1025800014BFD0464FF0FF080CF042F90746002870
:102590003FF404AE0CF05AF94FF6FF73FB800523AD
:1025A0003B71002E5DD17F233B7600233946FB76BD
:1025B000386887F81A800CF05FF90CF06DF916F0A6
:1025C000FFFC2B7F0646C3F380133278DB0102F059
:1025D000700243F00303134333700C2373705046AF
:1025E00013F064FDE37D9F07014644D5002842D0E7
:1025F0003378304643F0400300F8023B06221BF0DC
:1026000003F9062205F11E0106F108001BF0FCF893
:10261000304616F05BFC16F09BFC00283AD116F011
:1026200009FFA37D2E4843F00103A375214616F050
:102630006DFBA3E605F11E0B05AA5946384613F0BB
:1026400085FE00283FF4F8AEE37D03F00103BB42B2
:102650003CD04B46297F01F00F01002B7FF4EFADFA
:10266000EDE616F071FDC3B29EE7A67D04F1190BED
:10267000C6F380161EE6A37D3278C3F3801330467E
:1026800063F3861200F8022B04F1190106221BF0F5
:10269000BBF8B6E7134A1449144840F2264319F030
:1026A000FDFD404080F311884FF0030002DFB6E7E4
:1026B0000C4A0D490D484FF4687319F0EFFD404086
:1026C00080F311884FF0030002DF0DE65946062221
:1026D00004F108001BF087F8B0FA80F35B09B9E752
:1026E000097B0100981302004C1302000C06020043
:1026F000014B01221A7070472C28002070B5037816
:102700008AB004460E4607AD032B20D8DFE803F05D
:1027100002191B1D114928461BF02DF863780493FC
:10272000A3780393E3780293237901936379009369
:102730000B4AA37905951E21304619F0BCFD0AB05D
:1027400070BD0849E7E70849E5E70849E3E7084AB3
:102750000A21284619F0AFFDE0E700BF5C17020030
:102760007E170200631702006A1702007417020046
:10277000FA2C020030B5054689B00C4629B1124842
:1027800009B0BDE8304019F089BD104819F086FD48
:1027900004F0EEFD98B10E48214619F07FFD284661
:1027A0001BF06EFC6946FFF7A9FF694609481AF05D
:1027B000E2FF0948694619F071FD09B030BD0748CC
:1027C00019F06CFDEBE700BFA1170200C117020072
:1027D000CC1702002D2800200B180200F117020070
:1027E00000B589B06946FFF789FF054968461AF0C8
:1027F000EEFF10B9034B64221A6009B05DF804FBC8
:102800002D2800205801002010B50848084C18F069
:1028100077F920600F214FF4D05219F0E3FC054BFB
:1028200020681978BDE8104019F0CDBC1C180200D2
:10283000AC1100204B280020034B01211970034BE1
:10284000186819F0C0BC00BF4B280020AC11002054
:10285000034B00211970034B186819F0B4BC00BF7A
:102860004B280020AC11002070B5124C40F2111220
:102870000221204619F0B6FC2369A5681B68AE69E1
:1028800013F0040F0CBF4FF480234FF400330221E8
:102890004FF4A0322046B0470749084B4B60042351
:1028A0008B60EB6923B120460122BDE870401847D8
:1028B00070BD00BF80060020A0110020F12600009E
:1028C000F0B52E4889B019F0E9FC002004F008F8B2
:1028D000014628B12A4809B0BDE8F04019F0DEBC35
:1028E000FFF792FFFFF7C0FF2648274E274F19F04A
:1028F000D5FC2749274804F0AFFF274805F072F9B7
:102900004FF4A470002119F04BF93368002B2ADC36
:10291000FFF79EFF3B7813B3204D0FCD03AC0FC4E0
:102920004FF0000C2B6823601D49CDF800C06346B2
:10293000012203A887F800C004F00CFD0146A8B1ED
:10294000184819F0ABFC00214FF4202019F028F9A9
:1029500004F00EFD014668B1134819F09FFC33687E
:10296000013B3360CCE7FFF767FFD3E70F4819F06F
:1029700095FCE8E70E4819F091FCF0E723180200F7
:102980004518020065180200580100202C2800207C
:10299000E127000044010020300100204001020036
:1029A000E80102007C180200CC170200A218020005
:1029B000F1170200014B1860704700BF5C01002056
:1029C00030B585B0CDE901010446002501A90548CF
:1029D000039500F0E9F8DDE902309842B8BF2554CC
:1029E00005B030BD77C201002DE9F84FB0F818905E
:1029F00019F00808044693460DD001290CBF49F090
:102A0000100949F02009A0F818908BF31188BFF342
:102A10006F8FBDE8F88F09F00709022907D120461A
:102A200019F056FC0028F0D00128238B4ED167699D
:102A3000218B002F15DA256821F00701C4E90088F1
:102A400041F0010121830026218B01F0070ACA45CC
:102A500002D0A368002B5AD10DB9002E71D00023EB
:102A600056E001F007035A1F012A1ED821F0070182
:102A7000062B256889B2C4E900880AD13DB1638B71
:102A80002A46126801339BB2002AFAD1638341F0CF
:102A900002012183204619F01BFC06460028D3D0F2
:102AA000238B43F020032383CDE7042B0CD121F0AB
:102AB000070189B22183204619F00AFC0546002847
:102AC000C1D041F0200121830025BCE7032809D1B2
:102AD000226923F00703166843F0060323830025C9
:102AE0002F46B1E7042806D1226923F00703566870
:102AF00043F00403F2E7052806D1226923F0070317
:102B0000966843F00503E9E700252E46E8E7012330
:102B100041F0080121838BF31188BFF36F8FFBB95C
:102B200085BB16B11F492046B0474FF02003EFF395
:102B3000118B83F31188BFF36F8F238B23F008036E
:102B40002383238BDA0625D523F010032383012169
:102B5000B4F8189009F0070900297FF45EAF54E734
:102B6000A1680029DCD0D1F80090D1F804B03B4630
:102B700052462046D847B9F1000FD1D04946D9F87E
:102B80000090F2E729463B46524620462D6819F050
:102B9000BBFBC5E713F020011EBF23F020032383F6
:102BA0000221D5E735C301002DE9F04F91B08B46E6
:102BB000029092461C4600259AF8000008B9284663
:102BC0005FE325280AF1010707D0029B5946984781
:102BD0000028C0F25683013512E2182200210AA80B
:102BE0001AF03DFE9AF80130252B78D000221046CD
:102BF000964694461646394617F8013B2B2B00F0B3
:102C00009D8000F29480202B00F09B80232B00F00D
:102C10009B802EB19DF8306046F004068DF8306040
:102C2000BCF1000F05D09DF8306046F008068DF825
:102C30003060BEF1000F05D09DF8306046F0100600
:102C40008DF8306028B19DF8300040F020008DF8FC
:102C500030002AB19DF8302042F040028DF830203B
:102C60009DF8302002F04400442803D16FF386120F
:102C70008DF830209DF830202A2B42F080028DF80C
:102C800030207BD19DF8312042F001024B1C8DF8A1
:102C900031201A782E2A9DF831200CBF0121002105
:102CA00061F341028DF8312074D15A782A2A6AD012
:102CB000013300210A26184610F8012BA2F1300733
:102CC000092F40F28E809DF830200E91C2F3400013
:102CD00040EAD17161F341028DF830205AE00AF1E7
:102CE00002078DF833309DF83130D90740F1498122
:102CF00054F8049BB9F1000F07DA9DF8302042F038
:102D000004028DF83020C9F100095A0740F14281D0
:102D100054F8048BB8F1000F80F241819DF83130F6
:102D20006FF341038DF831304FF0FF3837E12D2B31
:102D30000CD0302B7FF46DAF01225CE74FF0010C1B
:102D400059E74FF0010E56E7012054E7012652E7FC
:102D50000CFB0202303A33461E4616F8010BA0F176
:102D60003007092FF4D9994293D09DF830100D9275
:102D7000D20F62F341018DF830108AE70B46002232
:102D80004FF00A0CE8E79DF8312042F004028DF87C
:102D9000312002331F4617F8012B6C2A41D025D869
:102DA000682A2BD06A2A46D04C2A4CD01F4617F8E6
:102DB000012B9DF831308DF83320782A00F2D9802C
:102DC000572A4DD8412A03D0453A022A00F2D18031
:102DD0009DF83230042262F302038DF83230012371
:102DE0009EE006FB01213039034664E7742A26D0B1
:102DF0007A2ADBD19DF8313006220DE05A78682A14
:102E00009DF8312006D1012161F3C6028DF83120F1
:102E10009F1CCCE71346022262F3C6038DF83130C3
:102E2000C5E75A786C2A9DF8312001D10421EBE7DF
:102E300013460322F0E79DF831300522ECE79DF8B8
:102E400031300722E8E7BDF8303023F4F04323F0B7
:102E5000020343F4804343F00203ADF83030A6E7A9
:102E6000A2F15801202900F2848001A050F821F03D
:102E7000352F0000732F0000732F0000732F000008
:102E8000732F0000732F0000732F0000732F0000BA
:102E9000732F0000D12D0000732F0000352F00008C
:102EA000F52E0000D12D0000D12D0000D12D000005
:102EB000732F0000F52E0000732F0000732F000009
:102EC000732F0000732F00003D2F0000352F0000EE
:102ED000592F0000732F0000732F0000592F00009E
:102EE000732F0000352F0000732F0000732F000098
:102EF000352F00009DF83210012003F0780360F3B5
:102F00000201402B8DF8321002BF9DF8301041F0C5
:102F100001018DF83010632A31D1003B18BF012325
:102F20009DF83020C2F340010B4363F341028DF85A
:102F30003020D8E69DF832100220DEE79DF83220DE
:102F400003F07803A3F14000032161F3020243423E
:102F50008DF832204341E3E79DF83220032113F03E
:102F6000780F61F302028DF8322014BF0123002391
:102F7000D6E79DF8303043F001038DF83030002360
:102F8000CEE79DF93020002AB4BFDDF834904FF031
:102F9000FF39BAE69B077FF5C7AEDDF838809DF8AC
:102FA00031100023CDE90D339DF8323003F00703D3
:102FB000012BC1F3C30138D1CB1E042B22D8DFE88B
:102FC00003F003090921210054F8043BDA17CDE985
:102FD0000A3206E0073424F00704F4E80223CDE9BE
:102FE0000A239DF8303013F0030656D002983B4672
:102FF0005246594619F037FD0028C0F24281054477
:10300000BA46D9E554F8043B01294FEAE372CDE909
:103010000A3205D19DF828300A9300230B93E0E78C
:103020000229DED1BDF92830D0E7022B23D1CB1EF7
:10303000042B13D8DFE803F0030A0A1212002268F7
:103040000A920023201D0B930446CAE7E01D20F0DE
:103050000700F0E80223CDE90A23F5E754F8043B22
:103060000A9301294FF000030B93D3D00229B8D162
:10307000BDF82830D0E7042B09D1E31D23F0070366
:1030800003F10804D3E90023CDE90A23A9E7032BC0
:1030900004BF54F8043B0A93A3E79DF83300782853
:1030A000AED8622822D825283FF48FAD5828A7D162
:1030B0000DF126030093DDE90A0104AB0CAA19F017
:1030C0008CFC8246B8F1000F0DF126000CDB9DF858
:1030D0003020A0EB0A036FF3861298458DF830205C
:1030E00002D9A8EB03030D9380463DE06338152811
:1030F00086D801A252F820F079310000DD310000BD
:1031000001300000013000000130000001300000FB
:10311000DD3100000130000001300000013000000E
:103120000130000037320000053200000932000093
:10313000013000000130000051310000013000007A
:1031400005320000013000000130000005320000AF
:10315000B8F1000FDDF828A00ADB414650461AF00E
:103160002DFB0AEB00080026BAF1000F0CD147E74F
:1031700050461AF01CFBF4E70A9B8DF8103000262D
:103180000DF1100A0DF11108A8EB0A0306B1013385
:103190009DF83220D00668D5023352060D9948BFFB
:1031A0000E9A0B4448BF9B18B9F1000F76DD9DF8CD
:1031B0003020A9EB0309C2F38003039353076DD4B6
:1031C000500661D546B1029B5946304698470028C3
:1031D00057DB039B01351E46302356E01E070FD4F4
:1031E00013F0100618BF2026DDE90A23002BBFF6D6
:1031F0005FAF524263EB4303CDE90A232D2657E725
:103200002B26F1E7002653E70A9840B30DF1260379
:1032100000930CAA04AB002119F0DFFBBDF832309B
:1032200003F0EF0343F4F04343F010038246ADF89C
:103230003230002646E70A9B07293FF6E1AEDFE879
:1032400001F00C04060C08080C0C1D70D8E61D805B
:10325000D6E6EA17C3E90052D2E61D60D0E6DFF8F1
:10326000C8A006460AF105088EE7110748BF0133DA
:1032700093E7184603935946029B98470028039BFF
:1032800004DA11B0BDE8F08F20234D444A46002AED
:10329000A5EB090109F1FF39EBDC0D4636B1029BC4
:1032A0005946304698470028EBDB01359DF832300F
:1032B000D90601D41A0706D5029B594630209847F3
:1032C0000028DEDB01359DF83230DB0607D59DF89E
:1032D0003300029B594698470028D2DB01350D9EEA
:1032E0002E44731B002B16DC029843465246594667
:1032F00019F0B9FB0028C4DB0544A944A9EB050378
:10330000002B7FF77DAE029B59462020984700286E
:10331000B7DB0135F2E7029B594630209847002879
:10332000AFDB0135DDE700BFBC18020030B5104946
:10333000104889B000221CF097FB0F4D0F49002266
:103340000023CDE9062300240E23CDE90334CDE983
:1033500001440B4B00944FF44072284617F0B0FD27
:10336000084928461CF021F8204609B030BD00BFAE
:10337000893300005008002088080020202D0020FC
:103380000D370000C2180200014817F025BF00BF2A
:103390000007002010B50B4B00221A700A4B0B4A95
:1033A0001A604FF4004000F0C1FC00F073FA0848C6
:1033B00019F070FBBDE81040064907480823482271
:1033C0001BF0A9BF4D28002060010020D3CA0100D6
:1033D000BC110020684C0020C411002010B54FF033
:1033E0002003EFF3118483F31188BFF36F8F044838
:1033F00019F060FB84F31188BFF36F8F10BD00BF1D
:10340000BC110020064BBFF35B8F53E8002F013245
:1034100043E800210029F8D1BFF35B8F704700BF5C
:10342000B41100200020064BBFF35B8F024653E827
:10343000000F43E800210029F9D1BFF35B8F7047EB
:10344000B4110020F8B5FFF7EDFF0A4C0A4D2D1B13
:1034500007462D110026AE4200DBF8BD63685B799C
:103460002BB123681B6913B13946204698470136B2
:103470001034F0E7F400020004010200044A054B96
:103480009B1AB1EBD30F34BF52F8310000207047C4
:1034900094FF0100F4000200094A4368801A10B545
:1034A0000011084C19600130012218715A712378FB
:1034B00013B9054817F090FE0123237010BD00BF1B
:1034C000F40002004C2800200007002070B5124BC9
:1034D000BFF35B8F53E8005F6A1C43E800210029BB
:1034E000F8D1BFF35B8F2DB90C4C0D4E361B361146
:1034F000B54200DB70BD237B53B123689B690BB1E0
:10350000204698476368042219682046FFF7C4FFE5
:1035100001351034ECE700BFB8110020F4000200C0
:1035200004010200164B984237B5044602D3154BEE
:10353000984220D314480022002301A917F062FC0E
:103540000546D8B90122019BBFF35B8F53E8001FEA
:1035500043E800200028F9D1BFF35B8F0198214692
:10356000412204301AF011F9019C7E2384F8453081
:1035700084F846500434204603B030BD034CFAE7CB
:1035800070FD010008300200C4110020CA180200BA
:1035900050B1064B984206D303F5107398422CBFE6
:1035A0000020012070470020704700BF684C0020B9
:1035B0002DE9F04F474B1B7885B0044603B900B3A3
:1035C000FFF70CFF054678B1BFF35B8F424B53E822
:1035D000002F013A43E800210029F8D1BFF35B8FA7
:1035E0009CB1284619F097FB2CB93C4B1B68002B6B
:1035F00001DDFFF727FF3A4819F05AFA041E18BFF9
:103600000124204605B0BDE8F08F364B1B78E3B9A6
:103610002B7ADB0719D419F091FB0746284619F0DD
:1036200058FB0146384619F058FADFF8BC802F4B9A
:10363000DFF8BCB0A3EB0803DB0803932D4BA3EB2F
:10364000080306464FEAD30A36B92B4E2B4FBF1B51
:103650003F114FF000083AE0B6FA86F1C1F11F09B8
:103660004946284619F038FB254B9842014602D3BB
:10367000244A90421AD30846FFF78AFF0246A8B9A7
:10368000214B994212D06B890399C3F389138B4262
:1036900038BF58F833204FEA8A1343F00103ADF8DE
:1036A000003049463B46584619F071FA012303FAA7
:1036B00009F126EA0106C7E773685B7923B133682D
:1036C00029465B683046984708F101081036B8452E
:1036D000F2DB86E74C280020B0110020B411002056
:1036E000BC1100204D28002094FF0100F4000200CE
:1036F000E4180200C4000200F40002000401020009
:1037000070FD010008300200CA18020010B5FFF772
:10371000DDFE18F05FFA0C4B186030B10B4B1B68E4
:10372000092B02DD0A4817F057FD094C0020FFF76E
:103730003FFF0028FAD14FF0FF324FF0FF33204611
:1037400017F070FDF2E700BFE0110020B01100207B
:1037500000070020294B37B51B6841810446984774
:10376000E0604FF02003EFF3118583F31188BFF37E
:103770006F8F2348214619F091F985F31188BFF323
:103780006F8FBFF35B8F1F4B53E8002F013243E86D
:1037900000210029F8D1BFF35B8F1B4A127882B158
:1037A0004FF02003EFF3118483F31188BFF36F8F81
:1037B0000020FFF7FDFE84F31188BFF36F8F03B085
:1037C00030BD124A1B681268002AF8D0012B0AD1BA
:1037D00000220023CDE900230D484FF400420023CE
:1037E00018F0F0FBEBE70A2BE9D109481CF048F987
:1037F000084803B0BDE8304017F0EEBC600100207F
:10380000BC110020B01100204D280020E011002044
:103810005008002000070020F8B50E4F3D7875B91C
:103820000D4C0E4EFFF752FE361B3611B54207DB2C
:103830000020FFF7BDFE0028FAD101233B70F8BD40
:1038400063685B791BB1236820465B699847013543
:103850001034EBE74D280020F400020004010200C0
:1038600007B504380190BFF35B8F50E8003F5A1E44
:1038700040E800210029F8D1BFF35B8F012B03D171
:10388000034801A91BF062FD03B05DF804FB00BF13
:10389000C41100202023024902481A461BF03BBDF8
:1038A000A84E0020E411002037B50023094D0193F4
:1038B0000120FFF77DFE0446FFF7A4FD0022002350
:1038C00001A9284617F09EFA08B1002CF0D1019802
:1038D00003B030BDE411002007B500230193074871
:1038E0000022002301A917F08DFA10B1FFF7DCFFC9
:1038F0000190019803B05DF804FB00BFE4110020C3
:10390000F0B5037A85B0DC0701901ED4457A2D0905
:103910001BD0002426460198314619F0DDF90746F0
:10392000FFF736FE70B134B9019B2946186919F0CA
:10393000D4F8044648B124FA06F3D90702D538462C
:10394000FFF78EFF0136AE42E5D3019B1A7A92074C
:1039500004D55B69084C0393039B2BB9064801A966
:103960001BF0F4FC05B0F0BD1D6803A920461BF058
:10397000EDFC0395F0E700BFE41100200EB403B5A1
:1039800003AB014653F8042B04480193FFF70CF9ED
:1039900002B05DF804EB03B0704700BF9DD1010099
:1039A0002DE9F0471D46089B1746DA0604460E46E9
:1039B00005D499064CBF2A492A49FFF7DFFFDFF8F3
:1039C000A8904FF00008A8452ADBDFF8A080DFF8B8
:1039D000A090DFF894A00025BD422FD2725D494629
:1039E0002046FFF7CBFF0135102D20D12149DFF80C
:1039F0007880DFF884902046FFF7C0FF0025AF42B3
:103A000028D9725DA2F120035F2B28BF2E224946E0
:103A10002046FFF7B3FF0135102D14D1BDE8F08724
:103A200049462046FFF7AAFF08F10108CBE76A07DD
:103A3000D2D151462046FFF7A1FFCDE741462046AF
:103A4000FFF79CFFCFE76B07D9D141462046FFF730
:103A500095FFD4E741462046FFF790FFDBE700BF24
:103A60002819020027190200321902003019020039
:103A70002A19020034190200361902002DE9F04F0C
:103A800087B011F0020605929DF84080BDF948907C
:103A900007461A4601F0010A01F0080506D011F0A8
:103AA000440F38D13349FFF769FF0646BAF1000FDA
:103AB0000AD0314B314953F82820314B3846002A7F
:103AC00008BF1A46FFF75AFF3DB12E4B2E4953F857
:103AD00028203846FFF752FF0546B9F1000F16DBE4
:103AE000059B002B43D0012303FA08F8274B284CF1
:103AF00018F0100F18BF1C4649469DF84400FFF708
:103B0000BDFC214602463846FFF738FF0544A81998
:103B100007B0BDE8F08F1F4B196831B31E4B4FF44F
:103B200061661B68B2FBF3F34FF47A7BB3FBF1F4ED
:103B3000B4FBF6F206FB124601FB14340BFB04F453
:103B40004FF03C0CB4FBF1FEB6FBFCF301FB1E4452
:103B50000CFB13660BFB04F40096B4FBF1F1CDE90A
:103B600001E10E49FFF70AFF9FE708469DE7084C71
:103B7000C2E700BF47190200F001020095240200CD
:103B800039190200040202006C19020043190200F4
:103B90003E190200001200200412002050190200F9
:103BA00038B50C46E107054603D5084A0849FFF732
:103BB000E5FEE20608D4A30628464CBF054906499F
:103BC000BDE83840FFF7DABE38BD00BF3919020042
:103BD0009524020028190200271902002DE9F04758
:103BE0008B7A13F007088AB005460E46174622D096
:103BF0000A7A4989C3F3C203C1F38911D243CDE9DB
:103C000000830291F36802F001023946FFF736FFA4
:103C10008146347AE44314F001040ED0294630463C
:103C200019F052F9B8F1000F2BD042463946284618
:103C3000FFF7B6FF25E0C146EBE7B8F1000F26D14C
:103C40002746EB68069306AA3B46A968304619F05A
:103C500027F9069A6B681A603AB1AB68134413F8F7
:103C6000014CA4F10A035C425C41284619F089FA30
:103C7000069B1F44002BE4D11CB114492846FFF7D2
:103C80007DFE28460AB0BDE8F04719F07ABA304602
:103C900019F054F80E4902462846FFF76FFE4FF020
:103CA000100A05AA234606A93046CDF814A019F03B
:103CB000F7F8059A002AB8D04B46009706A928467F
:103CC000FFF76EFE059B1C44EBE700BF7219020074
:103CD0009524020073B542F20F738B4228BF0B4646
:103CE00005680F4A04460521684618F0E4FA63683F
:103CF0000C495B6806460B22284619F0D8F8636821
:103D00003246694628465B6819F0D1F8636806496F
:103D10005B681B22284619F0CAF802B070BD00BFCC
:103D200099200200B019020094190200084A10B547
:103D30000123084C13600021A04204D801B1136094
:103D4000054B186010BD40085B000121F4E700BF7F
:103D50000412002040420F0000120020014B0122FB
:103D60001A7070475E280020024B034801221A7027
:103D700019F007BA5F280020340202000148FFF75B
:103D8000A9BF00BF3402020010B508460C4618F067
:103D900093FF054821460F22FFF720FF2046BDE88C
:103DA000104018F0B8BF00BF34020200054B1B786A
:103DB0001BB141F288301BF028BEA420002117F06F
:103DC000EFBE00BF5F2800202DE9F047DFF88C90A0
:103DD000DFF88CA080460F46042499F80050CDB936
:103DE0004FF0FF334FF0FF32504617F007F93A46D5
:103DF0004146284616F0DEFD0646504617F076F995
:103E0000184DFEB101232B7099F800306BB938467C
:103E1000BDE8F0873A464146002016F0CBFD064645
:103E2000EEE75CB92C704FF0FF34002016F03EFE38
:103E30000028ECD02B78002BF3D1E8E7013CFFF70A
:103E4000B5FFF2E72B7813B1013C04D12C702B782D
:103E5000002BC2D1DBE7FFF7A9FFF8E75F280020BE
:103E6000EC0600205E280020F8B505464FF0200340
:103E7000EFF3118683F31188BFF36F8F094B1C6832
:103E80005CB1094FD4E90132002D08BF13460BB1D4
:103E9000387898472468002CF4D186F31188BFF352
:103EA0006F8FF8BD1C12002024120020084B10B5A3
:103EB0001C685CB901221A60064B93E8070019F0F0
:103EC00009FD2046BDE81040FFF7CEBF10BD00BF82
:103ED0006401002024120020F0B585B06E46014632
:103EE0000546304619F075F996E80700144C84E849
:103EF00007002078274600B3124B002119606B1C85
:103F00000DD0114816464FF4004C104A0023E6FB32
:103F10000C01FCF7F5F80121281A1BF056FD17F0EB
:103F2000C1FB0120FFF7A0FF97E8070019F0BFFCD5
:103F3000FFF7BCFF17F06EFC207805B0F0BD00BFA6
:103F400024120020640100203F420F0040420F0075
:103F500010B5044C2046FEF72DFD204600F0C0FFB2
:103F6000002010BD693F00002DE9F341DFF85C80BF
:103F7000174E8DF80700044603254FF0FF334FF02E
:103F8000FF32404617F03AF801220DF107010020F8
:103F900016F05CFD0746404617F0A8F82FB1012344
:103FA0003370204602B0BDE8F0813378002BF8D0A2
:103FB000013D08D01BF0F3F90028DED1002142209A
:103FC00017F0EEFDD9E73570EBE700BFEC060020F7
:103FD00060280020084B70B5C31A0D4607499B1096
:103FE000044659430648402219F014F92B4601466D
:103FF0002046BDE87040184744120020B76DDBB67C
:104000000806002073B50C4C0C4A4023041B009397
:104010000D460B460A49A41061430646094819F0AB
:1040200026F9011E05DA30462B4602B0BDE8704085
:10403000184702B070BD00BF44120020DDD201005D
:10404000B76DDBB608060020002270B501210446DA
:10405000104600F047FB002000F012FB0F4816F05E
:10406000A1FB0F4B984215D11BF050F826690D4962
:10407000304618F07CF900280BDB2469094901253A
:10408000356404F11C0018F072F9002801DBE564C6
:10409000002070BD6FF00400FBE700BFDD400000B2
:1040A0000000AD0B7002020001460C2309484B438F
:1040B00070B5C418D4E90E5600224033A2631844E8
:1040C00019F095F82DB132462B460348BDE87040F3
:1040D000184770BD441200200806002010B10128C6
:1040E00004D07047034B1B6C5B0701D1FFF7DCBFAB
:1040F000704700BF4412002008B54FF02003EFF3D3
:10410000118183F31188BFF36F8F124A136843F054
:10411000020013F0010310600CD04FF08042D2F87F
:104120000C34D2F80C2413F0010303D00A4819F020
:104130005EF8012381F31188BFF36F8F23B1BDE8CF
:1041400008400020FFF7B0BFBDE8084001201AF08A
:10415000E7BF00BF94120020841200207FB5002228
:104160000123CDE9022304ABCDE90433094ACDF89C
:1041700000D06B46CDF804D019F0A9F8002805DB73
:104180004FF480420023684617F04CF807B05DF802
:1041900004FB00BFFBD20100094BBFF35B8F53E868
:1041A000002F22F0020143E800100028F7D1BFF3EE
:1041B0005B8FD30702D4012016F004BB704700BF09
:1041C00094120020024AC3B21C2003FB0020704757
:1041D00044120020094BBFF35B8F53E8002F42F0DD
:1041E000010143E800100028F7D1BFF35B8F93076C
:1041F00002D401201AF094BF704700BF941200202F
:10420000094BBFF35B8F53E8002F22F0010143E815
:1042100000100028F7D1BFF35B8F930702D4012071
:1042200016F0D0BA704700BF941200202DE9F0417B
:104230003949BFF35B8F0746012251E8003F41E84F
:1042400000200028F9D1BFF35B8F33B933493448DC
:104250004B60CB608A6018F09DF87B1E012B2FD835
:10426000012F07D14FF08043D3F81C3403F0030330
:10427000012B25D01BF093F8044618B9294B1B7865
:10428000002B41D14FF02003EFF3118683F3118807
:10429000BFF36F8F0124DFF890804FF08045D5F891
:1042A0001834D5F81824D2030CD503F00303012BDE
:1042B00001D0012F06D10CB386F31188BFF36F8FA5
:1042C000BDE8F081ACB1304600F074FAD5F818358D
:1042D000002BE4D1D5F80421002AE0D0C5F8043140
:1042E000D5F804310123C5F81835C8F88031AB6022
:1042F000D5E70021212017F053FCE7E74FF080437A
:104300000222C3F80423DBE74FF080430222C3F804
:1043100008230646BFE700BF981200203412002091
:10432000601200201E2D002000E100E0044A136806
:10433000C81A20F07F400344136017F0A5BD00BFEA
:10434000AC1200202DE9F843860006F1804600F10A
:10435000500406F58836A400A4B204F180444FF45A
:104360008037D6F84035DFF86C8021F07F4504F5C2
:1043700088348740D8F80495A3EB090323F07F43E2
:1043800029F07F42012BC6F8402502D113201BF0F3
:104390003CFB09F10202AB1A23F07F43B3F5000F97
:1043A00088BF1546002323602368C8F8447325F0AE
:1043B0007F43C6F84035D8F80435994506D0EB1A46
:1043C000023B23F07F43B3F5000F01D8BDE8F8832B
:1043D0002B46CFE700100140F8B50025104C2F46C2
:1043E000104B1E6805B1F8BDD4F80423D203FAD5EA
:1043F000D4F84021002AF6D0C4F84051D4F8402126
:104400004FF48032C4F84823D4F84015012526B172
:104410005A681F600020B047E2E71E60E3E700BF74
:1044200000100140A012002038B50F4C00254FF4B9
:104430008033C4F80855C4F804330C4B4FF40032F1
:10444000C3F8802101212A46112000F04BF91120E8
:1044500000F016F90123064AA360022023601360CE
:10446000FFF7E4FE284638BD0010014000E100E0FF
:10447000A8120020134AB0F1FF3F14BF03461346B1
:10448000013B002B1CDD9342A8BF13460E4AD2F815
:1044900004050E4A1168401A10F4000F20F07F4204
:1044A00018BF002301321344094A0A481060002053
:1044B0005060044A934294BFC9188918FFF742BF5D
:1044C0000023E3E7FFFF7F0000100140AC12002053
:1044D000A01200202D430000044BD3F80405044B28
:1044E0001B68C01A20F07F40704700BF00100140D9
:1044F000AC1200204FF02003EFF3118283F31188F8
:10450000BFF36F8F0649074B0868D3F8043582F371
:104510001188BFF36F8F1B1A23F07F431844704735
:10452000AC120020001001400449431E0F3013F864
:10453000012F8A5C1A708342F9D17047FC1902007E
:10454000F0B5264E07460C460FCE8DB001AD0FC517
:104550000FCE0FC596E8070085E807003846002F04
:1045600038D0002C38D0381F2146024610344B7802
:104570000D781B0443EA0563CD782B438D78043115
:1045800043EA05238C4242F8043FF0D1144C042145
:104590008A07036916D1C3F30742A55C1A0EA25C11
:1045A00042EA0562C3F30725DBB2655DE35C42EADC
:1045B000054242EA03220CAD21F003032B4453F8D9
:1045C0002C3C534050F8042F013153402C290361F7
:1045D000DED101200DB0F0BD2046FBE75401020002
:1045E000FC190200094A0A4993680968D967094910
:1045F00098674B6843F080534B60002383F3118826
:10460000BFF36F8F9368D86F704700BFCC2700202F
:104610004417020000ED00E00F498A684FF03000B7
:104620001044EFF3098C80E8F01F202080F31188FC
:10463000BFF36F8F094F4FF000664A6A8A603E6091
:10464000906F0023936780F3118802F1300090E8A7
:10465000F01F8CF309887047CC27002004ED00E0A0
:104660001EF0040F0CBFEFF30880EFF3098081699F
:1046700011F8021C0229FFD001B519F071F801BD33
:1046800043B2002B08DB012200F01F0002FA00F009
:104690005B09024A42F82300704700BF00E100E0D6
:1046A00043B2002B0DDB01225B0900F01F0002FA70
:1046B00000F02033034A42F82300BFF34F8FBFF3CB
:1046C0006F8F704700E100E0054B420900F01F00CA
:1046D00053F82220012303FA00F01040704700BF76
:1046E00000E100E043B2002BA8BF03F1604301F1F9
:1046F0000101B8BF064B4FEA4111ACBF03F561435E
:1047000000F00F00C9B2B4BF195483F8001370470A
:1047100014ED00E008B572B6044B186A18B1002217
:104720001A621AF049FE62B608BD00BFCC2700200D
:1047300042F8203C009B42F81C3C0A49019B42F88D
:10474000183C029B42F8143C21F001014FF08073A9
:1047500042F8043C42F8081C0023203A02658367B3
:10476000704700BF71C40100074B9860104681F389
:104770000988002163B681F31188BFF36F8F00228F
:10478000002317F075FE00BFCC270020014910223E
:104790000A60704710ED00E072B6404080F3118867
:1047A000BFF36F8FBFF34F8F30BF62B6BFF36F8F12
:1047B000704700BF72B6494081F3118820BF80F373
:1047C000118862B6704700BF73B506460C4601B348
:1047D000134B144D1448ED1AED08AD0145F00105D9
:1047E000ADF80050D1E90123096818F0D0F9ADF80F
:1047F0000050D4E90423E1680C4818F0C8F9E169D5
:104800000B482A4618F096F9A1690A482A4618F07A
:1048100091F92146304602B0BDE8704016F0B2B9B9
:1048200094FF0100DC000200FC1A02002B1B0200B6
:104830005A1B0200691B020030BFFFF7FDBF00BF1B
:104840000E4A08B50E4B22F07F029A60BFF34F8FDD
:10485000BFF36F8FD3F8882022F47002C3F888204A
:10486000EFF3148323F0040383F3148816F0E8F9BC
:1048700017F02AFA00F05AFA16F006FA00000000C3
:1048800000ED00E001B572B60B4A106A00281EBFA9
:10489000002111621AF090FD62B6EFF30580A0F1DD
:1048A00010004FEAC0000549014409C99847BDE816
:1048B0000140034908470000CC270020E0FD01002B
:1048C000114D000018F0F1FF202080F311880848F6
:1048D0004FF40061401880F30988EFF3148002213F
:1048E000084380F31488BFF36F8FFFF7A9FF000020
:1048F00068400020EFF30880EFF3098101B57246AC
:1049000000F034F901BD00BF70B5234B234C244D9A
:104910002448E41AE408A40144F00106314618F0E2
:10492000FCF8AB6A9B0103D51F48314618F0F5F837
:10493000AB6ADD0104D51D4844F0010118F0EDF823
:10494000174DAB6A180304D5194844F0010118F05B
:10495000E4F8AB6A590304D5164844F0010118F095
:10496000DCF80F4DAB6A9A0304D5134844F00101FB
:1049700018F0D3F8AB6ADB0304D5104844F001010A
:1049800018F0CBF8064A936A6FEA03436FEA1343C1
:104990009362002070BD00BF94FF0100DC000200A4
:1049A00000ED00E0971B0200AF1B0200C21B0200DB
:1049B000DC1B0200FA1B02001F1C0200391C020053
:1049C0002DE9F0412A4B2B4C2B4DE41AE408A401AD
:1049D00044F0010807460E462848414618F09DF865
:1049E000AB6AD90403D52648414618F096F8AB6A5D
:1049F0001A0504D5234844F0010118F08EF81E4D25
:104A0000AB6A9B0512D544F001081F48414618F0D7
:104A100084F8A96BAB6A180408D51C48424618F004
:104A200089F81FB1AB6A23F40043AB62124DAB6A45
:104A3000590504D5164844F0010118F06EF8AB6A28
:104A4000DA050DD5134844F0010118F066F80A4A5A
:104A5000936A002043F47F4393623070BDE8F08195
:104A6000AB6A9B04F3D50C4844F00101EDE700BFAD
:104A700094FF0100DC00020000ED00E0641C020075
:104A80007A1C02008B1C02009E1C0200B71C020054
:104A9000CC1C0200E71C0200FF1C02002DE9F041C3
:104AA000284B294C294DE41AE408A40144F00108DC
:104AB00007460E462648414618F02FF8AB6AD8063E
:104AC00003D52448414618F028F8AB6A190704D5E5
:104AD000214844F0010118F020F81C4DAB6A9A07F8
:104AE00012D544F0010841461C4818F016F8696BCD
:104AF000AB6A1B0608D51A48424618F01BF81FB1CE
:104B0000AB6A23F08003AB62104DAB6AD80704D5C3
:104B1000144844F0010118F000F8AB6A990604D576
:104B2000114844F0010117F0F8FF084B9A6AD206C9
:104B300058BF9A6A9A6A002042F0FF029A62307067
:104B4000BDE8F08194FF0100DC00020000ED00E010
:104B50002E1D0200441D02008B1C0200771D020066
:104B60008F1D0200A51D0200FF1C02002DE9F0436D
:104B7000584B5E688BB00F46C6F30804002585F3DA
:104B80001188BFF36F8F02F07F43B3F17F4F0DD1D8
:104B900002F00C03082B0BD14F49504B5048C91A57
:104BA000C908890141F0010117F0B7FF2F4603E062
:104BB000120701D40746012500238DF80730E31EB4
:104BC000092B6DD8DFE803F0055B5F3F6C6C6C6C04
:104BD0006C63424B404EDFF8FC804248F61AF60800
:104BE000B60146F00106314617F097FFD8F82C4081
:104BF0004FF0000914F002048DF8079005D03A48F0
:104C0000314617F08AFF002420E0D8F82C305B00F2
:104C10001CD53648314617F080FF98F828302BB164
:104C20000DF107010120FFF739FF0EE098F8293058
:104C30002BB10DF107010120FFF7C2FE05E0B8F826
:104C40002A309BB213B1FFF75FFE04469DF8073090
:104C500093B92022394602A818F0D6FD099B9DB3CE
:104C6000C3F3080222B96FEA53236FEA432309937F
:104C700002A92046FFF7A8FD0BB0BDE8F0830DF1B7
:104C800007010020CFE70DF107010020D4E712490A
:104C9000124B1748C91AC908890141F00101B0E750
:104CA0000E4A0D4B134814499B1ADB0816F4F87F83
:104CB0004FEA831318BF014643F001030F48A4F1E4
:104CC000100217F04BFF9EE723F4FF7323F001035C
:104CD000CDE700BF00ED00E0DC00020094FF010022
:104CE000C41D0200EF1D0200061E0200271E020066
:104CF000461E02007F1E02006A1E0200981E02006D
:104D0000024A536943F010035361704700ED00E01D
:104D1000044B9968586A884203D003494FF0805287
:104D20000A607047CC27002004ED00E0044800230F
:104D30002021C2180133302B82F80013F9D17047BB
:104D400000E100E0064B9B68834207D1EFF3058347
:104D500023B1044A536843F08053536016F050BFA8
:104D6000CC27002000ED00E0024B034A034801215C
:104D700000F07CB800000420000000207C0202004B
:104D8000F8B52A4F0E460021B14214DA4468002CCF
:104D900048D0C3B104F1FF3C14EA0C0F0DD0244AF3
:104DA000244B2548D21AD208920142F0010217F092
:104DB000C1FE6FF015021046F8BD1F2CEFD9056833
:104DC0001CEA050FEBD1202CD5B2D0F808C0026840
:104DD00016D9B4F1004F15D8013CB4FA84F4C4F1EB
:104DE0001F046400072D4CEA04040DD9104A114B2E
:104DF0001248D21AD208920142F001022946D6E79F
:104E00000824EFE73E24EDE722F01F022A4342F098
:104E1000100244F00104C7F89850C7F89C20C7F866
:104E2000A0406A1C01310C30AEE700BF00ED00E08D
:104E3000CC00020094FF0100AF1E0200D21E02004F
:104E4000044B0522C3F89420BFF34F8FBFF36F8F3D
:104E5000704700BF00ED00E0BFF35F8F024B002200
:104E6000C3F89420704700BF00ED00E010B5034C7C
:104E700001232278FFF784FF207010BD61280020F5
:104E800014490868082810B521D8FFF7E5FF124C2F
:104E900049680022904201F10C0105D10F4B1870B6
:104EA000FFF7CEFF002010BDC4F8982051F80C3C4D
:104EB00023F01F03134343F01003C4F89C3051F850
:104EC000043C43F00103C4F8A0300132E2E74FF0A4
:104ED000FF30E8E78802020000ED00E061280020D2
:104EE000014B1860704700BF680100204FF020039D
:104EF000EFF3118283F31188BFF36F8F064901230B
:104F0000C1F840354FF08041C1F8783582F31188FF
:104F1000BFF36F8F0020704700E0014020B1034BCA
:104F2000800143F001031847704700BFE001020011
:104F30000E4B402970B528BF40210D4C46181D4628
:104F4000B04203F1020304D1002305F811300748F1
:104F500070BD02781209A25C03F8022C10F8012B34
:104F600002F00F02A25C03F8012CE9E78028002080
:104F70000B1F020030B503788BB0044607AD032B3E
:104F800021D8DFE803F0021A1C1E1249284618F047
:104F9000F2FB63780493A3780393E3780293237975
:104FA0000193637900930C4AA37905951E210B4860
:104FB00017F081F909480BB030BD0949E6E7094906
:104FC000E4E70949E2E7094A0A21284617F073F99C
:104FD000DFE700BF5C1702007E1702006228002096
:104FE000631702006A17020074170200FA2C02000D
:104FF00030B4034608461A78012A13D0022A26D074
:1050000072B9154A02F1100452F8045B41F8045BCE
:10501000A242F9D15B8812780A7043731B0A83732A
:1050200030BC70470C4A02F1100452F8045B41F89E
:10503000045BA242F9D15B6812780A70C3F30722BD
:1050400043731B0CC3731B0A82730374E8E730BC01
:105050001122194618F0D8BB231F020038B50546A7
:10506000054819F00AFF044620B10021083019F064
:1050700023FF2575204638BD0008002070B5024684
:105080000B464FF02001EFF3118581F31188BFF338
:105090006F8F0C480021D0F80041C0F8001185F353
:1050A0001188BFF36F8F24B9BDE870400120FFF76E
:1050B000D5BF012304F108002375A18119F0FCFE7E
:1050C000204670BD0000002070B504460F2C0D4630
:1050D0001046194605D80D2C12D9BDE87040FFF7CF
:1050E000CDBF132C0CD10B4819F0C7FE044628B1D4
:1050F0000021083019F0E0FE01232375204670BD21
:1051000002460B460DB10448EEE7BDE870400120B1
:10511000FFF7A4BF280800208807002070B50B4DBA
:1051200006460FCD8CB06C460FC40FCD0FC495E86A
:105130000F0084E80F000B2E9BBF0CAB03EB860621
:10514000034856F8300C0CB070BD00BF800102005F
:10515000262002000549064A83680648521AD208EA
:105160009201197842F0020217F0E4BC94FF0100AA
:105170008C0002002E20020038B583681A7872B9BC
:10518000B3F80140204602F075FE054640B9084BD1
:105190001A8822B96FEA04506FEA1050188038BD9F
:1051A000012102F06FFE2846BDE8384018F02DBFFF
:1051B00014280020836810B51C88204602F05AFE8F
:1051C00060B9084A084B0948D21AD2089201214610
:1051D00042F00102BDE8104017F0ACBCBDE8104041
:1051E00018F013BF8C00020094FF0100562002004B
:1051F00008B50121083019F0C9FE064B064A0178AE
:105200000648D21AD2089201BDE8084042F00102D5
:1052100017F090BC94FF01008C0002007A2002007D
:1052200010B50A4A0A4C81898068A41AFFF780FEEB
:10523000FEF778F9E408A40144F00204014622468E
:105240000448BDE8104017F075BC00BF94FF010092
:105250008C0002009C20020073B58568B5F80160DF
:10526000304602F007FE044668B9254B254A264819
:10527000D21AD208920142F00102314602B0BDE8D2
:10528000704017F057BC2B78CBB92A79EB7843EAFA
:105290000223A0F89E30AA796B7943EA0223A0F892
:1052A000A430EB792A7A43EA0223A0F8A63002F070
:1052B00011FC204602B0BDE8704018F0A6BE1A2BC3
:1052C000F7D1C378012BF4D14FF48061043018F08A
:1052D000CEFB4305EDD4B4F8A030ADF80030B4F8FF
:1052E000A230ADF80230B4F8A830ADF80430694609
:1052F000B4F8AA30ADF80630204603F083FAD8E7B8
:1053000094FF01008C0002005620020013B50D4CE2
:105310000146052294F8330002F008FF78B90A4BE1
:10532000186B9A8E009093F83630ADF8042094F8FC
:1053300033008DF806300422694602F0F7FE02B011
:1053400010BD00BF000000208001020073B502EB19
:10535000C303054608461178A9421AD008329A427A
:10536000F9D18689164B174C80683146E41AFFF74D
:10537000DFFDFEF7D7F8E408A40144F00204034679
:10538000ADF8004010483246294617F000FC02B044
:1053900070BD818953788B420DD9094A094B0B485E
:1053A0009B1ADB089B0143F001032A4602B0BDE8CB
:1053B000704017F0D3BB536802B0BDE87040184787
:1053C00094FF01008C000200E2200200C0200200D5
:1053D00010B501210446083019F0D8FD2146034AD2
:1053E0000078BDE810400823FFF7B0BFD8020200E4
:1053F0002DE9F043074685B090793C4E8846144627
:1054000014F03AFB864216D0394B3A4DA0790097FA
:10541000ED1AED08019014F02FFBAD0145F00205E7
:10542000CDE902062B4634480422694617F0CBFB2F
:1054300005B0BDE8F083204614F026FB2F4D4FF059
:105440000C0909FB00504388BB4211D0284B294E60
:105450002046F61A14F018FBF60809FB0050B601B6
:1054600046F00206428826483346394617F076FB56
:10547000204614F009FB0C2606FB00504368ABB134
:10548000B8F1000F12D1204614F0FEFA06FB0050CE
:1054900001214268D2E90003127A03F01F06B140ED
:1054A0005B09EAB100EB830018F0E1FA204614F042
:1054B000EBFA0C2606FB00508368002BB8D0204680
:1054C00014F0E2FA704305F80080204614F0DCFA8C
:1054D00006FB0055A86805B0BDE8F04315F07CBE9A
:1054E000C94300EB830018F0B3FADFE7D8070020C8
:1054F00094FF01008C00020004210200B012002081
:105500003921020038B504210446083019F03EFD67
:105510004578017840882246FFF76AFF25B10348A5
:10552000BDE8384015F058BE38BD00BFE800002087
:1055300038B503210446083019F028FDA368057822
:105540001978B0F801002246FFF752FF25B1034851
:10555000BDE8384015F040BE38BD00BFE80000206F
:105560002DE9F84F394D3A4BD0F80880DFF8E4A028
:10557000ED1A0026ED08B14698F800309E4201DB96
:10558000BDE8F88F08EB8603B3F801B0B3F80370F9
:10559000584602F06FFC0446D8B100F1280B002FEA
:1055A00033D04FF02003EFF3118283F31188BFF360
:1055B0006F8FE369B3B1013BE36182F31188BFF3FD
:1055C0006F8F204602F082FA013F15F005FEBFB250
:1055D000E5E7AA01204842F00102594617F0AAFA6D
:1055E0000136C9E763692BB1A169186860618B4214
:1055F00008BFA06182F31188BFF36F8F4BB9A90177
:1056000041F00101504617F088FA204618F0FDFCE1
:10561000E6E74FF02002EFF3118182F31188BFF328
:105620006F8FDA68E261626AC3F80C90C3F8009089
:105630004AB9C4E9083381F31188BFF36F8F584624
:1056400015F036FFBDE713606362F4E78C000200DB
:1056500094FF0100882102006C210200F8B58668E1
:10566000357885BBB6F80170384602F003FC044675
:1056700060B9154B154A1648D21AD208920139461C
:1056800042F00102BDE8F84017F054BAF3784372D3
:10569000294602F0F7FBA3782580012B04D0204691
:1056A000BDE8F84018F0B1BCBFF35B8F6368BFF38F
:1056B0005B8FDB07F3D52046022102F0E3FB28468F
:1056C00001F086FFEBE7F8BD94FF01008C000200BB
:1056D0009F21020010B5C1E900239DF808300B722C
:1056E0000C4614F0D1F9034B0C2202FB00335C6032
:1056F00010BD00BFB01200202DE9F0474FF0FF327F
:105700004FF0FF3306461748174D0F4619F0B5FB0B
:10571000044600F1080A00214FF00008504619F035
:10572000CBFB84F81480204614F0AEF94FF00C093E
:1057300009FB00504680204614F0A6F909FB0050F2
:10574000C0F80880204614F09FF909FB005503219A
:10575000C5F80480504619F0F2FB87700680204699
:10576000BDE8F087D8070020B01200202DE9F041F5
:10577000074686B015460C4621B9FFF7BDFF044623
:10578000002857D001220021684619F0F1FE20467A
:1057900014F07AF9DFF8A4800C2303FB0080C0F832
:1057A00008D0204619F099FB2548214619F088FBBE
:1057B0004FF4A0220023684615F034FD064680B160
:1057C000204A2149214840F2331316F067FD204852
:1057D000314616F063FD404080F311884FF003001E
:1057E00002DF204614F050F90C23584318F80060EB
:1057F000BEB1184A184B19489B1ADB089B0143F0AD
:1058000002033246394617F0A9F9204614F0F2F99E
:10581000092E0CBF6FF06E006FF0040006B0BDE8FB
:10582000F08115B12C603046F8E7204614F0E2F91B
:105830002846F3E76FF06800F0E700BFB0120020E1
:1058400004010020C5210200F92102000222020009
:105850001F22020094FF01008C0002003F22020080
:1058600073B506460D4601AA002142F22F00FFF74C
:105870007DFF044660B10C490C4B0D48C91AC9089C
:10588000890141F0010117F048F9204602B070BDCE
:1058900001988368B3F801203280B3F803302B807D
:1058A00014F0A8F9F1E700BF8C00020094FF01009A
:1058B0005B220200F0B587B006460DF10B01002017
:1058C00001F03EFA044600283CD1192142F20D00B5
:1058D000FFF712FF0746C0B31921083019F02FFB5C
:1058E00019220546214617F0BAFF9DF80B302B739D
:1058F00006F18801681D18F0A8F8154A2C719389E3
:105900002B80D3896B80B6F8A030A5F80D30B6F89F
:10591000A230A5F80F30B6F8A430A5F81130B6F8CB
:10592000A630A5F813300123009398320B2303A966
:105930003846FFF7CFFE2246394642F20D00FFF708
:1059400015FF0446204607B0F0BD6FF06804F9E784
:105950000000002030B5002187B042F20E00FFF7B2
:10596000CBFE002504460B2303A9064A0095FFF74A
:10597000B1FE2A46214642F20E00FFF7F7FE07B0BD
:1059800030BD00BF98000020024BD3F81C311B69CA
:10599000184700BF0000002038B505460C4619B96D
:1059A000FFF7AAFE0446F0B140F635439D4214D1FC
:1059B0002046FFF7E9FF054668B10C4B0C4AD21AA6
:1059C000D2089201014642F001020A4817F0B2F8EB
:1059D000204614F00FF9284638BD0748214619F033
:1059E0006FFA0025F7E76FF06805F4E794FF010010
:1059F0008C0002007B220200040100207FB5837A24
:105A0000072B04466ED1BFF35B8F4368BFF35B8FF8
:105A10009B0400F104061BD4C37823B1324B93F8E6
:105A2000A0301D0714D5022142F21600FFF764FED4
:105A3000054668B10221083019F081FA23880380F5
:105A4000294642F2160004B0BDE87040FFF7A4BF3B
:105A5000BFF35B8F6368244DBFF35B8F13F4805FEC
:105A6000C3F300311CD195F8A130D80718D5022313
:105A700000911A46204618F064F8014630B980219A
:105A8000304604B0BDE8704017F0F1BF174A184B1C
:105A90001848D21AD208920142F0010217F04AF8CF
:105AA00095F8A0309A061DD5D5F81C319B689B0748
:105AB00018D50DF10E0103A8FFF7D2FE90B9BDF87D
:105AC0000C10BDF80E20204618F01EF8014648B113
:105AD000064A074B0848D21AD208920142F0010246
